{
  "contractName": "Marketplace",
  "abi": [
    {
      "inputs": [],
      "stateMutability": "nonpayable",
      "type": "constructor"
    },
    {
      "inputs": [],
      "name": "CourseAlreadyBought",
      "type": "error"
    },
    {
      "inputs": [],
      "name": "CourseAlreadyExist",
      "type": "error"
    },
    {
      "inputs": [],
      "name": "CourseIsAlreadyActivated",
      "type": "error"
    },
    {
      "inputs": [],
      "name": "CourseIsAlreadyDeactivated",
      "type": "error"
    },
    {
      "inputs": [],
      "name": "CourseMustBeActivated",
      "type": "error"
    },
    {
      "inputs": [],
      "name": "CourseOwnerAddressIsSame",
      "type": "error"
    },
    {
      "inputs": [],
      "name": "CourseOwnerAlreadyExist",
      "type": "error"
    },
    {
      "inputs": [],
      "name": "CourseOwnerDoNoExist",
      "type": "error"
    },
    {
      "inputs": [],
      "name": "OnlyOwner",
      "type": "error"
    },
    {
      "inputs": [
        {
          "internalType": "bytes32",
          "name": "",
          "type": "bytes32"
        }
      ],
      "name": "_allCourseOwners",
      "outputs": [
        {
          "internalType": "bytes32",
          "name": "id",
          "type": "bytes32"
        },
        {
          "internalType": "address",
          "name": "_address",
          "type": "address"
        },
        {
          "internalType": "uint8",
          "name": "rewardPercentage",
          "type": "uint8"
        }
      ],
      "stateMutability": "view",
      "type": "function",
      "constant": true
    },
    {
      "stateMutability": "payable",
      "type": "receive",
      "payable": true
    },
    {
      "inputs": [
        {
          "internalType": "address",
          "name": "newContractOwner",
          "type": "address"
        }
      ],
      "name": "transferOwnership",
      "outputs": [],
      "stateMutability": "nonpayable",
      "type": "function"
    },
    {
      "inputs": [
        {
          "internalType": "bytes32",
          "name": "courseOwnerId",
          "type": "bytes32"
        },
        {
          "internalType": "address",
          "name": "newAddress",
          "type": "address"
        }
      ],
      "name": "changeCourseOwnerAddress",
      "outputs": [],
      "stateMutability": "nonpayable",
      "type": "function"
    },
    {
      "inputs": [
        {
          "internalType": "bytes32",
          "name": "courseOwnerId",
          "type": "bytes32"
        },
        {
          "internalType": "address",
          "name": "ownerAddress",
          "type": "address"
        },
        {
          "internalType": "uint8",
          "name": "rewardPercentage",
          "type": "uint8"
        }
      ],
      "name": "addCourseOwner",
      "outputs": [],
      "stateMutability": "nonpayable",
      "type": "function"
    },
    {
      "inputs": [
        {
          "internalType": "bytes32",
          "name": "id",
          "type": "bytes32"
        },
        {
          "internalType": "string",
          "name": "title",
          "type": "string"
        },
        {
          "internalType": "uint32",
          "name": "price",
          "type": "uint32"
        },
        {
          "internalType": "bytes32",
          "name": "courseOwnerId",
          "type": "bytes32"
        }
      ],
      "name": "addCourse",
      "outputs": [],
      "stateMutability": "nonpayable",
      "type": "function"
    },
    {
      "inputs": [
        {
          "internalType": "bytes32",
          "name": "courseId",
          "type": "bytes32"
        }
      ],
      "name": "activateCourse",
      "outputs": [],
      "stateMutability": "nonpayable",
      "type": "function"
    },
    {
      "inputs": [
        {
          "internalType": "bytes32",
          "name": "courseId",
          "type": "bytes32"
        }
      ],
      "name": "deactivateCourse",
      "outputs": [],
      "stateMutability": "nonpayable",
      "type": "function"
    },
    {
      "inputs": [
        {
          "internalType": "bytes32",
          "name": "courseId",
          "type": "bytes32"
        }
      ],
      "name": "purchaseCourse",
      "outputs": [],
      "stateMutability": "payable",
      "type": "function",
      "payable": true
    },
    {
      "inputs": [
        {
          "internalType": "bytes32",
          "name": "courseId",
          "type": "bytes32"
        }
      ],
      "name": "getCoursePrice",
      "outputs": [
        {
          "internalType": "uint256",
          "name": "price",
          "type": "uint256"
        }
      ],
      "stateMutability": "view",
      "type": "function",
      "constant": true
    },
    {
      "inputs": [
        {
          "internalType": "address",
          "name": "_address",
          "type": "address"
        }
      ],
      "name": "getUserBoughtCoursesIds",
      "outputs": [
        {
          "internalType": "bytes32[]",
          "name": "",
          "type": "bytes32[]"
        }
      ],
      "stateMutability": "view",
      "type": "function",
      "constant": true
    }
  ],
  "bytecode": "0x608060405260008060006101000a81548160ff02191690831515021790555034801561002a57600080fd5b5061003a3361003f60201b60201c565b610083565b80600060016101000a81548173ffffffffffffffffffffffffffffffffffffffff021916908373ffffffffffffffffffffffffffffffffffffffff16021790555050565b612840806100926000396000f3fe6080604052600436106100955760003560e01c80638d7ff608116100595780638d7ff60814610182578063935d7e6d146101bf578063a5ece5be146101e8578063cf3b8eaa14610227578063f2fde38b146102435761009c565b80631c217d8c146100a157806339262572146100ca5780633a63c02d146100f35780633a6c4be31461011c578063486e19e3146101455761009c565b3661009c57005b600080fd5b3480156100ad57600080fd5b506100c860048036038101906100c39190611daf565b61026c565b005b3480156100d657600080fd5b506100f160048036038101906100ec9190611def565b6103c5565b005b3480156100ff57600080fd5b5061011a60048036038101906101159190611e55565b6104f9565b005b34801561012857600080fd5b50610143600480360381019061013e919061202a565b610728565b005b34801561015157600080fd5b5061016c60048036038101906101679190611def565b610b48565b60405161017991906120c6565b60405180910390f35b34801561018e57600080fd5b506101a960048036038101906101a491906120e1565b610c58565b6040516101b691906121cc565b60405180910390f35b3480156101cb57600080fd5b506101e660048036038101906101e19190611def565b610f7e565b005b3480156101f457600080fd5b5061020f600480360381019061020a9190611def565b6110b1565b60405161021e9392919061221b565b60405180910390f35b610241600480360381019061023c9190611def565b611108565b005b34801561024f57600080fd5b5061026a600480360381019061026591906120e1565b611630565b005b600060019054906101000a900473ffffffffffffffffffffffffffffffffffffffff1673ffffffffffffffffffffffffffffffffffffffff163373ffffffffffffffffffffffffffffffffffffffff16146102f3576040517f5fc483c500000000000000000000000000000000000000000000000000000000815260040160405180910390fd5b60006102fe836116c3565b90508073ffffffffffffffffffffffffffffffffffffffff168273ffffffffffffffffffffffffffffffffffffffff1603610365576040517ffa15526800000000000000000000000000000000000000000000000000000000815260040160405180910390fd5b6000600360008581526020019081526020016000209050828160010160006101000a81548173ffffffffffffffffffffffffffffffffffffffff021916908373ffffffffffffffffffffffffffffffffffffffff16021790555050505050565b600060019054906101000a900473ffffffffffffffffffffffffffffffffffffffff1673ffffffffffffffffffffffffffffffffffffffff163373ffffffffffffffffffffffffffffffffffffffff161461044c576040517f5fc483c500000000000000000000000000000000000000000000000000000000815260040160405180910390fd5b6000610457826117b0565b90506002600381111561046d5761046c612252565b5b8160050160009054906101000a900460ff16600381111561049157610490612252565b5b036104c8576040517fb71f584600000000000000000000000000000000000000000000000000000000815260040160405180910390fd5b60028160050160006101000a81548160ff021916908360038111156104f0576104ef612252565b5b02179055505050565b600060019054906101000a900473ffffffffffffffffffffffffffffffffffffffff1673ffffffffffffffffffffffffffffffffffffffff163373ffffffffffffffffffffffffffffffffffffffff1614610580576040517f5fc483c500000000000000000000000000000000000000000000000000000000815260040160405180910390fd5b600060036000858152602001908152602001600020604051806060016040529081600082015481526020016001820160009054906101000a900473ffffffffffffffffffffffffffffffffffffffff1673ffffffffffffffffffffffffffffffffffffffff1673ffffffffffffffffffffffffffffffffffffffff1681526020016001820160149054906101000a900460ff1660ff1660ff168152505090506000801b81600001511115610660576040517f94eca7a200000000000000000000000000000000000000000000000000000000815260040160405180910390fd5b600060405180606001604052808681526020018573ffffffffffffffffffffffffffffffffffffffff1681526020018460ff16815250905080600360008781526020019081526020016000206000820151816000015560208201518160010160006101000a81548173ffffffffffffffffffffffffffffffffffffffff021916908373ffffffffffffffffffffffffffffffffffffffff16021790555060408201518160010160146101000a81548160ff021916908360ff1602179055509050505050505050565b600060019054906101000a900473ffffffffffffffffffffffffffffffffffffffff1673ffffffffffffffffffffffffffffffffffffffff163373ffffffffffffffffffffffffffffffffffffffff16146107af576040517f5fc483c500000000000000000000000000000000000000000000000000000000815260040160405180910390fd5b60008484846040516020016107c693929190612352565b604051602081830303815290604052805190602001209050600060036000848152602001908152602001600020604051806060016040529081600082015481526020016001820160009054906101000a900473ffffffffffffffffffffffffffffffffffffffff1673ffffffffffffffffffffffffffffffffffffffff1673ffffffffffffffffffffffffffffffffffffffff1681526020016001820160149054906101000a900460ff1660ff1660ff168152505090506000801b8160000151036108bd576040517fba9fd0fa00000000000000000000000000000000000000000000000000000000815260040160405180910390fd5b6000600260008881526020019081526020016000206040518060a001604052908160008201548152602001600182015481526020016002820154815260200160038201604051806060016040529081600082015481526020016001820160009054906101000a900473ffffffffffffffffffffffffffffffffffffffff1673ffffffffffffffffffffffffffffffffffffffff1673ffffffffffffffffffffffffffffffffffffffff1681526020016001820160149054906101000a900460ff1660ff1660ff168152505081526020016005820160009054906101000a900460ff1660038111156109b1576109b0612252565b5b60038111156109c3576109c2612252565b5b8152505090506000801b81600001511180156109e25750828160200151145b15610a19576040517f95ceeb1d00000000000000000000000000000000000000000000000000000000815260040160405180910390fd5b60006040518060a001604052808981526020018581526020018763ffffffff168152602001848152602001600380811115610a5757610a56612252565b5b815250905080600260008a81526020019081526020016000206000820151816000015560208201518160010155604082015181600201556060820151816003016000820151816000015560208201518160010160006101000a81548173ffffffffffffffffffffffffffffffffffffffff021916908373ffffffffffffffffffffffffffffffffffffffff16021790555060408201518160010160146101000a81548160ff021916908360ff160217905550505060808201518160050160006101000a81548160ff02191690836003811115610b3657610b35612252565b5b02179055509050505050505050505050565b600080610b54836117b0565b6040518060a001604052908160008201548152602001600182015481526020016002820154815260200160038201604051806060016040529081600082015481526020016001820160009054906101000a900473ffffffffffffffffffffffffffffffffffffffff1673ffffffffffffffffffffffffffffffffffffffff1673ffffffffffffffffffffffffffffffffffffffff1681526020016001820160149054906101000a900460ff1660ff1660ff168152505081526020016005820160009054906101000a900460ff166003811115610c3357610c32612252565b5b6003811115610c4557610c44612252565b5b8152505090508060400151915050919050565b6060600080600160008573ffffffffffffffffffffffffffffffffffffffff1673ffffffffffffffffffffffffffffffffffffffff168152602001908152602001600020805480602002602001604051908101604052809291908181526020016000905b82821015610dd857838290600052602060002090600602016040518060a001604052908160008201548152602001600182015481526020016002820154815260200160038201604051806060016040529081600082015481526020016001820160009054906101000a900473ffffffffffffffffffffffffffffffffffffffff1673ffffffffffffffffffffffffffffffffffffffff1673ffffffffffffffffffffffffffffffffffffffff1681526020016001820160149054906101000a900460ff1660ff1660ff168152505081526020016005820160009054906101000a900460ff166003811115610db357610db2612252565b5b6003811115610dc557610dc4612252565b5b8152505081526020019060010190610cbc565b50505050905060005b81518163ffffffff161015610e625760016003811115610e0457610e03612252565b5b828263ffffffff1681518110610e1d57610e1c61238b565b5b6020026020010151608001516003811115610e3b57610e3a612252565b5b03610e4f578280610e4b906123e9565b9350505b8080610e5a906123e9565b915050610de1565b5060008263ffffffff1667ffffffffffffffff811115610e8557610e84611ec3565b5b604051908082528060200260200182016040528015610eb35781602001602082028036833780820191505090505b509050600080600090505b8351811015610f715760016003811115610edb57610eda612252565b5b848281518110610eee57610eed61238b565b5b6020026020010151608001516003811115610f0c57610f0b612252565b5b03610f5e57838181518110610f2457610f2361238b565b5b602002602001015160000151838381518110610f4357610f4261238b565b5b6020026020010181815250508180610f5a90612415565b9250505b8080610f6990612415565b915050610ebe565b5081945050505050919050565b600060019054906101000a900473ffffffffffffffffffffffffffffffffffffffff1673ffffffffffffffffffffffffffffffffffffffff163373ffffffffffffffffffffffffffffffffffffffff1614611005576040517f5fc483c500000000000000000000000000000000000000000000000000000000815260040160405180910390fd5b6000611010826117b0565b905060038081111561102557611024612252565b5b8160050160009054906101000a900460ff16600381111561104957611048612252565b5b03611080576040517f76f0207700000000000000000000000000000000000000000000000000000000815260040160405180910390fd5b60038160050160006101000a81548160ff021916908360038111156110a8576110a7612252565b5b02179055505050565b60036020528060005260406000206000915090508060000154908060010160009054906101000a900473ffffffffffffffffffffffffffffffffffffffff16908060010160149054906101000a900460ff16905083565b806000611114826117b0565b6040518060a001604052908160008201548152602001600182015481526020016002820154815260200160038201604051806060016040529081600082015481526020016001820160009054906101000a900473ffffffffffffffffffffffffffffffffffffffff1673ffffffffffffffffffffffffffffffffffffffff1673ffffffffffffffffffffffffffffffffffffffff1681526020016001820160149054906101000a900460ff1660ff1660ff168152505081526020016005820160009054906101000a900460ff1660038111156111f3576111f2612252565b5b600381111561120557611204612252565b5b81525050905060038081111561121e5761121d612252565b5b8160800151600381111561123557611234612252565b5b0361126c576040517ff1f0d8a800000000000000000000000000000000000000000000000000000000815260040160405180910390fd5b600034116112af576040517f08c379a00000000000000000000000000000000000000000000000000000000081526004016112a6906124ba565b60405180910390fd5b6112b93384611820565b6115f95760006112c8846117b0565b6040518060a001604052908160008201548152602001600182015481526020016002820154815260200160038201604051806060016040529081600082015481526020016001820160009054906101000a900473ffffffffffffffffffffffffffffffffffffffff1673ffffffffffffffffffffffffffffffffffffffff1673ffffffffffffffffffffffffffffffffffffffff1681526020016001820160149054906101000a900460ff1660ff1660ff168152505081526020016005820160009054906101000a900460ff1660038111156113a7576113a6612252565b5b60038111156113b9576113b8612252565b5b815250509050348160400181815250506001816080019060038111156113e2576113e1612252565b5b908160038111156113f6576113f5612252565b5b815250506000600360008360600151600001518152602001908152602001600020604051806060016040529081600082015481526020016001820160009054906101000a900473ffffffffffffffffffffffffffffffffffffffff1673ffffffffffffffffffffffffffffffffffffffff1673ffffffffffffffffffffffffffffffffffffffff1681526020016001820160149054906101000a900460ff1660ff1660ff16815250509050808260600181905250600160003373ffffffffffffffffffffffffffffffffffffffff1673ffffffffffffffffffffffffffffffffffffffff1681526020019081526020016000208290806001815401808255809150506001900390600052602060002090600602016000909190919091506000820151816000015560208201518160010155604082015181600201556060820151816003016000820151816000015560208201518160010160006101000a81548173ffffffffffffffffffffffffffffffffffffffff021916908373ffffffffffffffffffffffffffffffffffffffff16021790555060408201518160010160146101000a81548160ff021916908360ff160217905550505060808201518160050160006101000a81548160ff021916908360038111156115d9576115d8612252565b5b021790555050506115f282606001518360400151611a4f565b505061162b565b6040517f9d858fed00000000000000000000000000000000000000000000000000000000815260040160405180910390fd5b505050565b600060019054906101000a900473ffffffffffffffffffffffffffffffffffffffff1673ffffffffffffffffffffffffffffffffffffffff163373ffffffffffffffffffffffffffffffffffffffff16146116b7576040517f5fc483c500000000000000000000000000000000000000000000000000000000815260040160405180910390fd5b6116c081611c97565b50565b60008060036000848152602001908152602001600020604051806060016040529081600082015481526020016001820160009054906101000a900473ffffffffffffffffffffffffffffffffffffffff1673ffffffffffffffffffffffffffffffffffffffff1673ffffffffffffffffffffffffffffffffffffffff1681526020016001820160149054906101000a900460ff1660ff1660ff168152505090506000801b8160000151036117a3576040517fba9fd0fa00000000000000000000000000000000000000000000000000000000815260040160405180910390fd5b8060200151915050919050565b6000806002600084815260200190815260200160002090506000801b816000015411156117e0578091505061181b565b6040517f08c379a000000000000000000000000000000000000000000000000000000000815260040161181290612526565b60405180910390fd5b919050565b600080600160008573ffffffffffffffffffffffffffffffffffffffff1673ffffffffffffffffffffffffffffffffffffffff168152602001908152602001600020805480602002602001604051908101604052809291908181526020016000905b8282101561199e57838290600052602060002090600602016040518060a001604052908160008201548152602001600182015481526020016002820154815260200160038201604051806060016040529081600082015481526020016001820160009054906101000a900473ffffffffffffffffffffffffffffffffffffffff1673ffffffffffffffffffffffffffffffffffffffff1673ffffffffffffffffffffffffffffffffffffffff1681526020016001820160149054906101000a900460ff1660ff1660ff168152505081526020016005820160009054906101000a900460ff16600381111561197957611978612252565b5b600381111561198b5761198a612252565b5b8152505081526020019060010190611882565b50505050905060005b8151811015611a4257838282815181106119c4576119c361238b565b5b602002602001015160000151148015611a1f5750600160038111156119ec576119eb612252565b5b8282815181106119ff576119fe61238b565b5b6020026020010151608001516003811115611a1d57611a1c612252565b5b145b15611a2f57600192505050611a49565b8080611a3a90612415565b9150506119a7565b5060009150505b92915050565b60008054906101000a900460ff1615611a9d576040517f08c379a0000000000000000000000000000000000000000000000000000000008152600401611a9490612592565b60405180910390fd5b60016000806101000a81548160ff0219169083151502179055506000611ae66064611ad8856040015160ff1685611cdb90919063ffffffff16565b611cf190919063ffffffff16565b905060008183611af691906125b2565b90506000846020015173ffffffffffffffffffffffffffffffffffffffff1683604051611b2290612617565b60006040518083038185875af1925050503d8060008114611b5f576040519150601f19603f3d011682016040523d82523d6000602084013e611b64565b606091505b5050905080611ba8576040517f08c379a0000000000000000000000000000000000000000000000000000000008152600401611b9f9061269e565b60405180910390fd5b60008060019054906101000a900473ffffffffffffffffffffffffffffffffffffffff1673ffffffffffffffffffffffffffffffffffffffff1683604051611bef90612617565b60006040518083038185875af1925050503d8060008114611c2c576040519150601f19603f3d011682016040523d82523d6000602084013e611c31565b606091505b5050905080611c75576040517f08c379a0000000000000000000000000000000000000000000000000000000008152600401611c6c90612730565b60405180910390fd5b5050505060008060006101000a81548160ff0219169083151502179055505050565b80600060016101000a81548173ffffffffffffffffffffffffffffffffffffffff021916908373ffffffffffffffffffffffffffffffffffffffff16021790555050565b60008183611ce99190612750565b905092915050565b60008183611cff91906127d9565b905092915050565b6000604051905090565b600080fd5b600080fd5b6000819050919050565b611d2e81611d1b565b8114611d3957600080fd5b50565b600081359050611d4b81611d25565b92915050565b600073ffffffffffffffffffffffffffffffffffffffff82169050919050565b6000611d7c82611d51565b9050919050565b611d8c81611d71565b8114611d9757600080fd5b50565b600081359050611da981611d83565b92915050565b60008060408385031215611dc657611dc5611d11565b5b6000611dd485828601611d3c565b9250506020611de585828601611d9a565b9150509250929050565b600060208284031215611e0557611e04611d11565b5b6000611e1384828501611d3c565b91505092915050565b600060ff82169050919050565b611e3281611e1c565b8114611e3d57600080fd5b50565b600081359050611e4f81611e29565b92915050565b600080600060608486031215611e6e57611e6d611d11565b5b6000611e7c86828701611d3c565b9350506020611e8d86828701611d9a565b9250506040611e9e86828701611e40565b9150509250925092565b600080fd5b600080fd5b6000601f19601f8301169050919050565b7f4e487b7100000000000000000000000000000000000000000000000000000000600052604160045260246000fd5b611efb82611eb2565b810181811067ffffffffffffffff82111715611f1a57611f19611ec3565b5b80604052505050565b6000611f2d611d07565b9050611f398282611ef2565b919050565b600067ffffffffffffffff821115611f5957611f58611ec3565b5b611f6282611eb2565b9050602081019050919050565b82818337600083830152505050565b6000611f91611f8c84611f3e565b611f23565b905082815260208101848484011115611fad57611fac611ead565b5b611fb8848285611f6f565b509392505050565b600082601f830112611fd557611fd4611ea8565b5b8135611fe5848260208601611f7e565b91505092915050565b600063ffffffff82169050919050565b61200781611fee565b811461201257600080fd5b50565b60008135905061202481611ffe565b92915050565b6000806000806080858703121561204457612043611d11565b5b600061205287828801611d3c565b945050602085013567ffffffffffffffff81111561207357612072611d16565b5b61207f87828801611fc0565b935050604061209087828801612015565b92505060606120a187828801611d3c565b91505092959194509250565b6000819050919050565b6120c0816120ad565b82525050565b60006020820190506120db60008301846120b7565b92915050565b6000602082840312156120f7576120f6611d11565b5b600061210584828501611d9a565b91505092915050565b600081519050919050565b600082825260208201905092915050565b6000819050602082019050919050565b61214381611d1b565b82525050565b6000612155838361213a565b60208301905092915050565b6000602082019050919050565b60006121798261210e565b6121838185612119565b935061218e8361212a565b8060005b838110156121bf5781516121a68882612149565b97506121b183612161565b925050600181019050612192565b5085935050505092915050565b600060208201905081810360008301526121e6818461216e565b905092915050565b6121f781611d1b565b82525050565b61220681611d71565b82525050565b61221581611e1c565b82525050565b600060608201905061223060008301866121ee565b61223d60208301856121fd565b61224a604083018461220c565b949350505050565b7f4e487b7100000000000000000000000000000000000000000000000000000000600052602160045260246000fd5b6000819050919050565b61229c61229782611d1b565b612281565b82525050565b600081519050919050565b600081905092915050565b60005b838110156122d65780820151818401526020810190506122bb565b838111156122e5576000848401525b50505050565b60006122f6826122a2565b61230081856122ad565b93506123108185602086016122b8565b80840191505092915050565b60008160e01b9050919050565b60006123348261231c565b9050919050565b61234c61234782611fee565b612329565b82525050565b600061235e828661228b565b60208201915061236e82856122eb565b915061237a828461233b565b600482019150819050949350505050565b7f4e487b7100000000000000000000000000000000000000000000000000000000600052603260045260246000fd5b7f4e487b7100000000000000000000000000000000000000000000000000000000600052601160045260246000fd5b60006123f482611fee565b915063ffffffff820361240a576124096123ba565b5b600182019050919050565b6000612420826120ad565b91507fffffffffffffffffffffffffffffffffffffffffffffffffffffffffffffffff8203612452576124516123ba565b5b600182019050919050565b600082825260208201905092915050565b7f4e6f20457468657220776572652073656e742e00000000000000000000000000600082015250565b60006124a460138361245d565b91506124af8261246e565b602082019050919050565b600060208201905081810360008301526124d381612497565b9050919050565b7f4e6f20636f7572736520666f756e640000000000000000000000000000000000600082015250565b6000612510600f8361245d565b915061251b826124da565b602082019050919050565b6000602082019050818103600083015261253f81612503565b9050919050565b7f4e6f2072652d656e7472616e6379000000000000000000000000000000000000600082015250565b600061257c600e8361245d565b915061258782612546565b602082019050919050565b600060208201905081810360008301526125ab8161256f565b9050919050565b60006125bd826120ad565b91506125c8836120ad565b9250828210156125db576125da6123ba565b5b828203905092915050565b600081905092915050565b50565b60006126016000836125e6565b915061260c826125f1565b600082019050919050565b6000612622826125f4565b9150819050919050565b7f5472616e736665722066756e647320746f20636f75727365206f776e6572206660008201527f61696c65642e0000000000000000000000000000000000000000000000000000602082015250565b600061268860268361245d565b91506126938261262c565b604082019050919050565b600060208201905081810360008301526126b78161267b565b9050919050565b7f5472616e736665722066756e647320746f20636f6e7472616374206f776e657260008201527f206661696c65642e000000000000000000000000000000000000000000000000602082015250565b600061271a60288361245d565b9150612725826126be565b604082019050919050565b600060208201905081810360008301526127498161270d565b9050919050565b600061275b826120ad565b9150612766836120ad565b9250817fffffffffffffffffffffffffffffffffffffffffffffffffffffffffffffffff048311821515161561279f5761279e6123ba565b5b828202905092915050565b7f4e487b7100000000000000000000000000000000000000000000000000000000600052601260045260246000fd5b60006127e4826120ad565b91506127ef836120ad565b9250826127ff576127fe6127aa565b5b82820490509291505056fea264697066735822122033ec62fe6bfc722fa8cb183126a45bd468eb928e7c3a52e306873dd5048f3c7964736f6c634300080e0033",
  "immutableReferences": {},
  "source": "// SPDX-License-Identifier: MIT\npragma solidity >=0.8.14;\n\n// SafeMath\n// The following version of SafeMath is used because this contract uses Solidity 0.8 or later (i.e. the compiler has built in overflow checks).\n// https://github.com/OpenZeppelin/openzeppelin-contracts/blob/master/contracts/utils/math/SafeMath.sol\nimport \"@openzeppelin/contracts/utils/math/SafeMath.sol\";\n\ncontract Marketplace {\n    // Library usage\n    using SafeMath for uint256;\n\n    // boolean to prevent reentrancy\n    bool _locked = false;\n\n    address payable private _contractOwner;\n\n    enum State {\n        NotPurchasedYet,\n        Purchased,\n        Activated,\n        Deactivated\n    }\n\n    struct CourseOwner {\n        bytes32 id;\n        address _address; //A owner may (have to)/change account address\n        uint8 rewardPercentage; //A course owner negotiates to earn a percentage of his course proposed price\n    }\n\n    //That course is gonna be stored on the storage\n    struct Course {\n        bytes32 id; // 32\n        bytes32 title;\n        uint256 price; // 32\n        CourseOwner owner;\n        State state; // 1\n    }\n\n    // mapping of courseHash to Course data\n    mapping(address => Course[]) private _ownedCourses;\n\n    //list of all courses stored in this contract\n    mapping(bytes32 => Course) private _allCourses;\n\n    // list of all course owners who have course stored in this contract\n    mapping(bytes32 => CourseOwner) public _allCourseOwners;\n\n    constructor() {\n        setContractOwner(msg.sender);\n    }\n\n    receive() external payable {}\n\n    error OnlyOwner();\n    error CourseOwnerAddressIsSame();\n    error CourseOwnerAlreadyExist();\n    error CourseAlreadyBought();\n    error CourseOwnerDoNoExist();\n    error CourseAlreadyExist();\n    error CourseMustBeActivated();\n    error CourseIsAlreadyDeactivated();\n    error CourseIsAlreadyActivated();\n\n    // Modifier\n    /**\n     * Prevents reentrancy\n     */\n    modifier noReentrant() {\n        require(!_locked, \"No re-entrancy\");\n        _locked = true;\n        _;\n        _locked = false;\n    }\n\n    // Modifier\n    /**\n     * Prevents a course to be puchased if not activated yet\n     */\n    modifier canPurchaseCourse(bytes32 courseId) {\n        Course memory course = getCourseFromId(courseId);\n        if (course.state == State.Deactivated) {\n            revert CourseMustBeActivated();\n        }\n        _;\n    }\n\n    // Modifier\n    /**\n     * Prevents contract interaction with someone else who is not the contract owner\n     */\n    modifier onlyContractOwner() {\n        if (msg.sender != _contractOwner) {\n            revert OnlyOwner();\n        }\n        _;\n    }\n\n    // Function\n    /**\n     * Set a new contract owner\n     */\n    function setContractOwner(address newContractOwner) private {\n        _contractOwner = payable(newContractOwner);\n    }\n\n    // Function\n    /**\n     * Transfer contract ownership\n     */\n    function transferOwnership(address newContractOwner)\n        external\n        onlyContractOwner\n    {\n        setContractOwner(newContractOwner);\n    }\n\n    // Function\n    /**\n     * Change course's owner recipient address\n     */\n    //A bad actor could change course's owner recipient address to redirect funds from course purchases, hence the modifier requirement that allows only the contract owner to do it.\n    //ideally, if taking full responsabilities over his account, the course owner is able change his recipient address without requiring contract owner assistance.\n    function changeCourseOwnerAddress(bytes32 courseOwnerId, address newAddress)\n        external\n        onlyContractOwner\n    {\n        address ownerCurrentAddress = getCourseOwnerRecipientAddress(\n            courseOwnerId\n        );\n        if (newAddress == ownerCurrentAddress)\n            revert CourseOwnerAddressIsSame();\n\n        CourseOwner storage existingOwner = _allCourseOwners[courseOwnerId];\n        existingOwner._address = newAddress;\n    }\n\n    // Function\n    /**\n     * Add a new course owner with his negotiated reward percentage\n     */\n    function addCourseOwner(\n        bytes32 courseOwnerId,\n        address ownerAddress,\n        uint8 rewardPercentage\n    ) external onlyContractOwner {\n        CourseOwner memory existingOwner = _allCourseOwners[courseOwnerId];\n        if (existingOwner.id > 0) revert CourseOwnerAlreadyExist();\n\n        CourseOwner memory courseOwner = CourseOwner({\n            id: courseOwnerId,\n            _address: ownerAddress,\n            rewardPercentage: rewardPercentage\n        });\n        _allCourseOwners[courseOwnerId] = courseOwner;\n    }\n\n    // Function\n    /**\n     * Add a new course to the contract\n     */\n    function addCourse(\n        bytes32 id,\n        string memory title,\n        uint32 price,\n        bytes32 courseOwnerId\n    ) external onlyContractOwner {\n        bytes32 descriptionHash = keccak256(abi.encodePacked(id, title, price));\n\n        //check if course owner exists, if not reject course creation\n        CourseOwner memory existingOwner = _allCourseOwners[courseOwnerId];\n        if (existingOwner.id == 0) revert CourseOwnerDoNoExist();\n\n        //check if course already exist\n        Course memory existingCourse = _allCourses[id];\n        if (existingCourse.id > 0 && existingCourse.title == descriptionHash)\n            revert CourseAlreadyExist();\n\n        Course memory course = Course({\n            id: id,\n            title: descriptionHash,\n            price: price,\n            owner: existingOwner,\n            state: State.Deactivated\n        });\n\n        _allCourses[id] = course;\n    }\n\n    // Function\n    /**\n     * Activate a course, this is necessary before purchasing it\n     */\n    function activateCourse(bytes32 courseId) external onlyContractOwner {\n        Course storage course = getCourseFromId(courseId);\n        if (course.state == State.Activated) {\n            revert CourseIsAlreadyActivated();\n        }\n        course.state = State.Activated;\n    }\n\n    // Function\n    /**\n     * Deactivate a course, this may be needed if the owner does not want to promote his course anymore\n     */\n    function deactivateCourse(bytes32 courseId) external onlyContractOwner {\n        Course storage course = getCourseFromId(courseId);\n        if (course.state == State.Deactivated) {\n            revert CourseIsAlreadyDeactivated();\n        }\n        course.state = State.Deactivated;\n    }\n\n    // Function\n    /**\n     * Split purchase as following : The course owner is funded with a negotiated reward % of the course price, the rest left goes to the marketplace contract owner\n     */\n    function splitAmount(CourseOwner memory courseOwner, uint256 amount)\n        private\n        noReentrant\n    {\n        uint256 courseOwnwerAmount = amount\n            .mul(courseOwner.rewardPercentage)\n            .div(100);\n        uint256 contractOwnwerAmount = amount - courseOwnwerAmount;\n\n        //Transfer funds to course owner\n        (bool successTransferCourseOwner, ) = courseOwner._address.call{\n            value: courseOwnwerAmount\n        }(\"\");\n        require(\n            successTransferCourseOwner,\n            \"Transfer funds to course owner failed.\"\n        );\n\n        //Tranfer the rest to contract owner\n        (bool successTransferContractOwner, ) = _contractOwner.call{\n            value: contractOwnwerAmount\n        }(\"\");\n        require(\n            successTransferContractOwner,\n            \"Transfer funds to contract owner failed.\"\n        );\n    }\n\n    // Function\n    /**\n     * Purchase a course (must be activated first), funds are transfered to different parties(course owner and contract owner)\n     */\n    function purchaseCourse(bytes32 courseId)\n        external\n        payable\n        canPurchaseCourse(courseId)\n    {\n        require(msg.value > 0, \"No Ether were sent.\");\n\n        if (!hasCourseAlreadyBeenBought(msg.sender, courseId)) {\n            Course memory course = getCourseFromId(courseId);\n            course.price = msg.value;\n            course.state = State.Purchased;\n            //get latest update from course owner (cowner may have chnaged his fund's recipient address)\n            CourseOwner memory courseOwner = _allCourseOwners[course.owner.id];\n            course.owner = courseOwner;\n            _ownedCourses[msg.sender].push(course);\n\n            splitAmount(course.owner, course.price);\n            return;\n        }\n\n        revert CourseAlreadyBought();\n    }\n\n    function getCoursePrice(bytes32 courseId)\n        external\n        view\n        returns (uint256 price)\n    {\n        Course memory course = getCourseFromId(courseId);\n        return course.price;\n    }\n\n    // Function\n    /**\n     * For a given address and course id, check if a course has already been bought\n     */\n    function hasCourseAlreadyBeenBought(address _address, bytes32 courseHashId)\n        private\n        view\n        returns (bool)\n    {\n        Course[] memory owned = _ownedCourses[_address];\n        for (uint256 i = 0; i < owned.length; i++) {\n            if (\n                owned[i].id == courseHashId && owned[i].state == State.Purchased\n            ) return true;\n        }\n        return false;\n    }\n\n    // Function\n    /**\n     * For a given address, returns all bought courses\n     */\n    function getUserBoughtCoursesIds(address _address)\n        external\n        view\n        returns (bytes32[] memory)\n    {\n        uint32 resultCount;\n\n        Course[] memory owned = _ownedCourses[_address];\n        for (uint32 i = 0; i < owned.length; i++) {\n            if (owned[i].state == State.Purchased) resultCount++;\n        }\n\n        bytes32[] memory ids = new bytes32[](resultCount);\n        uint256 j;\n        for (uint256 i = 0; i < owned.length; i++) {\n            if (owned[i].state == State.Purchased) {\n                ids[j] = owned[i].id;\n                j++;\n            }\n        }\n\n        return ids;\n    }\n\n    // Function\n    /**\n     * For a given course id, returns a course object\n     */\n    function getCourseFromId(bytes32 courseId)\n        private\n        view\n        returns (Course storage)\n    {\n        Course storage course = _allCourses[courseId];\n        if (course.id > 0) {\n            return course;\n        } else revert(\"No course found\");\n    }\n\n    function getCourseOwnerRecipientAddress(bytes32 courseOwnerId)\n        private\n        view\n        returns (address _address)\n    {\n        CourseOwner memory existingOwner = _allCourseOwners[courseOwnerId];\n        if (existingOwner.id == 0) revert CourseOwnerDoNoExist();\n        return existingOwner._address;\n    }\n}\n\n//contract interaction testing\n// 1. Add a new course owner with function: addCourseOwner\n// 2. Add a new course with function: addCourse\n// 3. Activate previously added course with function: activateCourse\n// 4. Make a course purchase with function: purchaseCourse\n// Check that all parties have received the funds (course owner and contract owner)\n\n// 5. Course owner requested to change his recipient funds address, use function: changeCourseOwnerAddress\n// 6. Try buying another course from that owner and check again if the new recipient address has received his funds\n\n//Course owner id : guid = 89668047-4e15-4038-bfe3-ca48d49cefe0\n//keccak-256 : 0x56e10badce74380d80504ec8a27c7c04659dbf3c681eb29331f7ff050d889dc8\n\n// Course 1 keccak-256 : 7a01148c2ddec8a0d111c7d674f007130b4c17be41c7e392bb11acec6539d717\n// Course 2 keccak-256 : 4371c95e9d6e5330b64fcdeaaf9f07de8458c2b554fa9bb14217f890e6de364f\n// Course 3 keccak-256 : 50477dd0f75cca5cf8518db7062e7b9e378f467b829c26d4a0a8046683dd3654\n\n// const instance = await Marketplace.deployed()\n//instance.addCourse('0x7a01148c2ddec8a0d111c7d674f007130b4c17be41c7e392bb11acec6539d717', description: 'Solidity for beginners', price: 75, '0x56e10badce74380d80504ec8a27c7c04659dbf3c681eb29331f7ff050d889dc8');\n//instance.addCourse('0x4371c95e9d6e5330b64fcdeaaf9f07de8458c2b554fa9bb14217f890e6de364f', 'Solidity for advanced', 120,'0x56e10badce74380d80504ec8a27c7c04659dbf3c681eb29331f7ff050d889dc8');\n//instance.addCourse('0x50477dd0f75cca5cf8518db7062e7b9e378f467b829c26d4a0a8046683dd3654', 'Css complete course', 250, '0x56e10badce74380d80504ec8a27c7c04659dbf3c681eb29331f7ff050d889dc8');\n\n//instance.activateCourse(0x7a01148c2ddec8a0d111c7d674f007130b4c17be41c7e392bb11acec6539d717);\n//instance.activateCourse(0x4371c95e9d6e5330b64fcdeaaf9f07de8458c2b554fa9bb14217f890e6de364f);\n//instance.purchaseCourse(0x4371c95e9d6e5330b64fcdeaaf9f07de8458c2b554fa9bb14217f890e6de364f);\n\n//instance.deactivateCourse(0x7a01148c2ddec8a0d111c7d674f007130b4c17be41c7e392bb11acec6539d717);\n//instance.purchaseCourse(0x7a01148c2ddec8a0d111c7d674f007130b4c17be41c7e392bb11acec6539d717)\n\n//instance.getUserBoughtCoursesIds(\"0x...\")\n\n//to interact with other accounts:\n//Marketplace.defaults({from:\"0x....\"})\n",
  "sourcePath": "/Users/bricegrenard/Desktop/blockchain_tuto/marketplace-eth/contracts/MarketplaceContract.sol",
  "compiler": {
    "name": "solc",
    "version": "0.8.14+commit.80d49f37.Emscripten.clang"
  },
  "schemaVersion": "3.4.7",
  "updatedAt": "2022-06-24T01:13:34.838Z",
  "networkType": "ethereum",
  "devdoc": {
    "kind": "dev",
    "methods": {},
    "version": 1
  },
  "userdoc": {
    "kind": "user",
    "methods": {
      "activateCourse(bytes32)": {
        "notice": "Activate a course, this is necessary before purchasing it"
      },
      "addCourse(bytes32,string,uint32,bytes32)": {
        "notice": "Add a new course to the contract"
      },
      "addCourseOwner(bytes32,address,uint8)": {
        "notice": "Add a new course owner with his negotiated reward percentage"
      },
      "changeCourseOwnerAddress(bytes32,address)": {
        "notice": "Change course's owner recipient address"
      },
      "deactivateCourse(bytes32)": {
        "notice": "Deactivate a course, this may be needed if the owner does not want to promote his course anymore"
      },
      "getUserBoughtCoursesIds(address)": {
        "notice": "For a given address, returns all bought courses"
      },
      "purchaseCourse(bytes32)": {
        "notice": "Purchase a course (must be activated first), funds are transfered to different parties(course owner and contract owner)"
      },
      "transferOwnership(address)": {
        "notice": "Transfer contract ownership"
      }
    },
    "version": 1
  }
}